:100000000C945D000C9485000C9485000C94850084
:100010000C9485000C9485000C9485000C9485004C
:100020000C9485000C9485000C9485000C9485003C
:100030000C9485000C9485000C9485000C9485002C
:100040000C945D030C9485000C94CD030C94A703D1
:100050000C9485000C9485000C9485000C9485000C
:100060000C9485000C9485000000000024002700FB
:100070002A0000000000250028002B0004040404CE
:100080000404040402020202020203030303030342
:10009000010204081020408001020408102001021F
:1000A00004081020000000080002010000030407FB
:1000B0000000000000000000FF0311241FBECFEF6E
:1000C000D8E0DEBFCDBF11E0A0E0B1E0ECE3FCE0A2
:1000D00002C005900D92A439B107D9F723E0A4E935
:1000E000B1E001C01D92A734B207E1F710E0CDE501
:1000F000D0E004C02197FE010E941106CC35D10743
:10010000C9F70E94F3040C941C060C94000090E0C4
:10011000FC01EC55FF4F3491FC01E057FF4F249157
:10012000FC01E458FF4FE491EE2309F43BC0332374
:1001300039F1333091F038F43130A9F0323001F533
:1001400084B58F7D12C0373091F03830A1F0343053
:10015000B9F4809180008F7D03C0809180008F77FB
:10016000809380000DC084B58F7784BD09C08091D5
:10017000B0008F7703C08091B0008F7D8093B00076
:10018000F0E0EE0FFF1FEE58FF4FA591B4918FB72F
:10019000F894EC91611103C020952E2301C02E2B01
:1001A0002C938FBF08953FB7F89480919901909157
:1001B0009A01A0919B01B0919C0126B5A89B05C016
:1001C0002F3F19F00196A11DB11D3FBFBA2FA92FD6
:1001D000982F8827820F911DA11DB11DBC01CD0153
:1001E00042E0660F771F881F991F4A95D1F708953F
:1001F0002FB7F894609195017091960180919701C5
:10020000909198012FBF0895CF92DF92EF92FF92C5
:100210000F931F93CF93DF936C017A018B01C0E0A2
:10022000D0E0CE15DF0589F0D8016D918D01D601A2
:10023000ED91FC910190F081E02DC6010995892B8B
:1002400011F47E0102C02196ECCFC701DF91CF915E
:100250001F910F91FF90EF90DF90CF900895089538
:1002600080E090E00895FC01538D448D252F30E00F
:10027000842F90E0821B930B541710F0CF960895B3
:1002800001970895FC01918D828D981761F0828D00
:10029000DF01A80FB11D5D968C91928D9F5F9F73BA
:1002A000928F90E008958FEF9FEF0895FC01918D5C
:1002B000828D981731F0828DE80FF11D858D90E0C9
:1002C00008958FEF9FEF0895FC01918D228D892F66
:1002D00090E0805C9F4F821B91098F73992708954E
:1002E0008DE991E00E94640121E0892B09F420E06E
:1002F000822F0895FC01848DDF01A80FB11DA35A40
:10030000BF4F2C91848D90E001968F739927848F35
:10031000A689B7892C93A089B1898C9180648C932C
:10032000938D848D981306C00288F389E02D808117
:100330008F7D80830895EF92FF920F931F93CF9349
:10034000DF93EC0181E0888F9B8D8C8D981305C025
:10035000E889F989808185FD24C0F62E0B8D10E097
:100360000F5F1F4F0F731127E02E8C8DE8120CC00A
:100370000FB607FCFACFE889F989808185FFF5CFB0
:10038000CE010E947A01F1CF8B8DFE01E80FF11DA5
:10039000E35AFF4FF0820B8FEA89FB8980818062EC
:1003A00007C0EE89FF896083E889F98980818064CC
:1003B000808381E090E0DF91CF911F910F91FF90BA
:1003C000EF900895CF93DF93EC01888D8823C9F0D7
:1003D000EA89FB89808185FD05C0A889B9898C914E
:1003E00086FD0FC00FB607FCF5CF808185FFF2CFE9
:1003F000A889B9898C9185FFEDCFCE010E947A0141
:10040000E7CFDF91CF91089580E090E0892B29F02C
:100410000E94700181110C9400000895CF93DF9326
:10042000EC017F836E830E94F800688779878A8752
:100430009B878E819F81009721F0019741F46A810B
:1004400001C069818881DF91CF910C948700DF9191
:10045000CF9108950F931F93CF93DF938C01EB01FE
:10046000FB01EE0FFF1FEE0FFF1FE00FF11F668174
:100470007781F801828193810E940E022296CC0F2F
:10048000DD1FCC0FDD1FC00FD11F68817981F801FE
:1004900084819581DF91CF911F910F910C940E0271
:1004A0000F931F93CF93DF938C0186E0869FE0012B
:1004B000879FD00D1124C00FD11F68857985F80161
:1004C000868197810E940E026A857B85F80184816E
:1004D00095810E940E026C857D85F8018281938151
:1004E000DF91CF911F910F910C940E020F931F93E8
:1004F000CF93DF93FC01268137812230310549F506
:10050000EC010E94F800088519852A853B85AB011E
:10051000BC01401B510B620B730B8B819C81A0E0D3
:10052000B0E084179507A607B70798F48D81882354
:1005300011F0698101C06A8188810E9487009D81D4
:1005400081E089278D830E94F800688779878A87F0
:100550009B87DF91CF911F910F910895CF93DF93E8
:10056000EC018A819B810E9476028C819D81DF91C2
:10057000CF910C947602CF93DF93EC018E819F8113
:100580000E9476028C819D810E9476028A819B81E5
:10059000DF91CF910C9476020F931F93CF93DF934B
:1005A000EC011D82688349832A831C830B8370E0DE
:1005B000FB01E057FF4F8491FB01E458FF4F24916A
:1005C000222399F030E0220F331FF901E859FF4F41
:1005D000A591B491F901EE58FF4F259134919FB741
:1005E000F894EC91E82BEC939FBF81E090E09F831F
:1005F0008E836A8188810E9487000E94F800688744
:1006000079878A879B87DF91CF911F910F910895FA
:10061000009769F0FC0101900020E9F73197AF01E4
:10062000481B590BBC018DE991E00C94040180E05A
:1006300090E008958F929F92AF92BF920F931F9375
:10064000CF93DF93CDB7DEB7A1970FB6F894DEBF97
:100650000FBECDBF19A2423008F44AE08E010F5DF3
:100660001F4F842E912CA12CB12CA50194010E9426
:10067000EF05E62FB901CA0101501109EA3014F45F
:10068000E05D01C0E95CD801EC93232B242B252BE2
:1006900061F7C8010E940803A1960FB6F894DEBF67
:1006A0000FBECDBFDF91CF911F910F91BF90AF9043
:1006B0009F908F9008950E9417061F920F920FB679
:1006C0000F9211242F933F938F939F93AF93BF93D8
:1006D0008091950190919601A0919701B091980118
:1006E0003091940123E0230F2D3720F40196A11DB2
:1006F000B11D05C026E8230F0296A11DB11D209350
:1007000094018093950190939601A0939701B093E3
:1007100098018091990190919A01A0919B01B091CB
:100720009C010196A11DB11D8093990190939A019E
:10073000A0939B01B0939C01BF91AF919F918F912A
:100740003F912F910F900FBE0F901F9018951F9201
:100750000F920FB60F9211242F933F934F935F93F5
:100760006F937F938F939F93AF93BF93EF93FF9379
:100770008DE991E00E947A01FF91EF91BF91AF91D5
:100780009F918F917F916F915F914F913F912F91A9
:100790000F900FBE0F901F9018951F920F920FB6DB
:1007A0000F9211242F938F939F93EF93FF93E091D8
:1007B000AD01F091AE018081E091B301F091B401FF
:1007C00082FD12C090818091B6018F5F8F7320915E
:1007D000B701821751F0E091B601F0E0E356FE4F09
:1007E000958F8093B60101C08081FF91EF919F9119
:1007F0008F912F910F900FBE0F901F9018950F9310
:100800001F93CF93DF93EDE9F1E01382128288EE1C
:1008100093E0A0E0B0E084839583A683B7838DE660
:1008200091E09183808385EC90E09587848784ECC8
:1008300090E09787868780EC90E0918B808B81ECAD
:1008400090E0938B828B82EC90E0958B848B86EC8E
:1008500090E0978B868B118E128E138E148E08EC7F
:1008600010E020E041E06DE08BE393E00E94CC02D9
:1008700004EF11E021E040E062E08FE293E00E94AB
:10088000CC0221E040E063E083E293E00E94CC02EE
:1008900021E040E064E087E193E00E94CC0221E0A7
:1008A00040E065E08BE093E00E94CC0221E040E074
:1008B00066E08FEF92E00E94CC0221E040E067E02A
:1008C00083EF92E00E94CC0221E040E068E087EEF6
:1008D00092E00E94CC0221E040E069E08BED92E0E2
:1008E0000E94CC0221E040E06AE08FEC92E00E949E
:1008F000CC0221E040E06BE083EC92E00E94CC026D
:10090000C7E9D2E087E891E09983888324E2E5E3B0
:10091000F1E0AFE9B2E001900D922A95E1F727E10D
:1009200033E03F832E832BE033E03D832C832FEF96
:1009300032E03B832A83CBE6D2E09983888384E24A
:10094000E5E3F1E0A3E7B2E001900D928A95E1F7CB
:100950008BED92E09F838E838FEC92E09D838C835E
:1009600083EC92E09B838A83C5E5D2E08FE791E038
:100970009983888320E1E9E5F1E0ABE5B2E00190FD
:100980000D922A95E1F72FE233E03B832A8323E29D
:1009900033E03D832C83CFE3D2E09983888380E1E9
:1009A000E9E5F1E0A5E4B2E001900D928A95E1F766
:1009B00083EF92E09B838A8387EE92E09D838C8312
:1009C00088E091E090933E0280933D02EAE3F2E0FA
:1009D00080E091E09183808384E08283DF91CF91F6
:1009E0001F910F910895789484B5826084BD84B579
:1009F000816084BD85B5826085BD85B5816085BD1A
:100A000080916E00816080936E00109281008091D1
:100A10008100826080938100809181008160809359
:100A20008100809180008160809380008091B1007E
:100A300084608093B1008091B00081608093B000A9
:100A400080917A00846080937A0080917A0082603D
:100A500080937A0080917A00816080937A008091FF
:100A60007A00806880937A001092C10092E0B92EDB
:100A70002FECA22E36E0932EC0E080913C02C817E6
:100A8000A8F490913A0280913B02E92FF82FEC0FE5
:100A9000F11DEC0FF11D80819181DC01ED91FC9144
:100AA0000190F081E02D0995CF5FE7CF0E94D30040
:100AB0002B013C0188E8C82E83E1D82EE12CF12CD3
:100AC0000E94D300DC01CB0184199509A609B7095E
:100AD000883E9340A105B10558F0B1E0CB1AD1088A
:100AE000E108F10828EE420E23E0521E611C711C41
:100AF000C114D104E104F10419F7E091AD01F091C2
:100B0000AE01B082E091A901F091AA011082E091BA
:100B1000AB01F091AC01A0821092B501E091B1015E
:100B2000F091B2019082E091AF01F091B00180812B
:100B300080618083E091AF01F091B0018081886095
:100B40008083E091AF01F091B00180818068808363
:100B5000E091AF01F091B00180818F7D808305E04D
:100B600010E0E8012597E0913D02F0913E02EC0F84
:100B7000FD1F608170E080E090E04AE00E941A036F
:100B80008BE891E00E9408032196C017D10759F71E
:100B900082E991E00E9408038E010B5F1F4F023330
:100BA0001105F9F68EE891E00E9408034AE064E03E
:100BB00070E080E090E00E941A038EE891E00E94CD
:100BC00008034AE069E070E080E090E00E941A03C8
:100BD0008EE891E00E9408030E9404024DCFA1E23A
:100BE0001A2EAA1BBB1BFD010DC0AA1FBB1FEE1FA7
:100BF000FF1FA217B307E407F50720F0A21BB30BF2
:100C0000E40BF50B661F771F881F991F1A9469F76D
:100C100060957095809590959B01AC01BD01CF01C9
:100C20000895EE0FFF1F0590F491E02D099481E0E7
:0C0C300090E0F8940C941C06F894FFCFA0
:100C3C0097026B0255023F020303030305000202F5
:100C4C000005010202010504020202050205000270
:100C5C00050200000205020101020502050202055F
:100C6C000502020205000001000100020001000162
:100C7C000001000100000001000000010001000063
:100C8C000000000100020001000000010002000150
:100C9C00000100000001000100000000009B0104A5
:100CAC00013301E20164014201560100000000AE73
:100CBC00022A0200000000BB0250022C20000A0A8B
:040CCC000A0A0A0006
:00000001FF
