:100000000C945D000C9485000C9485000C94850084
:100010000C9485000C9485000C9485000C9485004C
:100020000C9485000C9485000C9485000C9485003C
:100030000C9485000C9485000C9485000C9485002C
:100040000C94D9010C9485000C9485000C948500C7
:100050000C9485000C9485000C9485000C9485000C
:100060000C9485000C9485000000000024002700FB
:100070002A0000000000250028002B0004040404CE
:100080000404040402020202020203030303030342
:10009000010204081020408001020408102001021F
:1000A00004081020000000080002010000030407FB
:1000B0000000000000000000300311241FBECFEF3D
:1000C000D8E0DEBFCDBF11E0A0E0B1E0ECE2F9E0A6
:1000D00002C005900D92AA37B107D9F722E0AAE72E
:1000E000B1E001C01D92A23AB207E1F710E0CDE500
:1000F000D0E004C02197FE010E948E04CC35D107C8
:10010000C9F70E9423020C9494040C94000090E020
:10011000FC01EC55FF4F3491FC01E057FF4F249157
:10012000FC01E458FF4FE491EE2309F43BC0332374
:1001300039F1333091F038F43130A9F0323001F533
:1001400084B58F7D12C0373091F03830A1F0343053
:10015000B9F4809180008F7D03C0809180008F77FB
:10016000809380000DC084B58F7784BD09C08091D5
:10017000B0008F7703C08091B0008F7D8093B00076
:10018000F0E0EE0FFF1FEE58FF4FA591B4918FB72F
:10019000F894EC91611103C020952E2301C02E2B01
:1001A0002C938FBF08952FB7F89460919E027091A1
:1001B0009F028091A0029091A1022FBF0895CF933A
:1001C000DF93EC017F836E830E94D3006887798779
:1001D0008A879B878E819F81009721F0019741F448
:1001E0006A8101C069818881DF91CF910C94870079
:1001F000DF91CF9108950F931F93CF93DF938C01DD
:10020000EB01FB01EE0FFF1FEE0FFF1FE00FF11FD1
:1002100066817781F801828193810E94DF002296B6
:10022000CC0FDD1FCC0FDD1FC00FD11F688179817E
:10023000F80184819581DF91CF911F910F910C94EA
:10024000DF000F931F93CF93DF938C0186E0869F8F
:10025000E001879FD00D1124C00FD11F68857985DB
:10026000F801868197810E94DF006A857B85F8010D
:10027000848195810E94DF006C857D85F8018281F3
:100280009381DF91CF911F910F910C94DF000F9319
:100290001F93CF93DF93FC012681378122303105F4
:1002A00049F5EC010E94D300088519852A853B8514
:1002B000AB01BC01401B510B620B730B8B819C810A
:1002C000A0E0B0E084179507A607B70798F48D81E2
:1002D000882311F0698101C06A8188810E948700AA
:1002E0009D8181E089278D830E94D300688779876B
:1002F0008A879B87DF91CF911F910F910895CF93AC
:10030000DF93EC018A819B810E9447018C819D8152
:10031000DF91CF910C944701CF93DF93EC018E8155
:100320009F810E9447018C819D810E9447018A81A3
:100330009B81DF91CF910C9447010F931F93CF9333
:10034000DF93EC011D82688349832A831C830B831E
:1003500070E0FB01E057FF4F8491FB01E458FF4F31
:100360002491222399F030E0220F331FF901E8593C
:10037000FF4FA591B491F901EE58FF4F25913491AB
:100380009FB7F894EC91E82BEC939FBF81E090E04D
:100390009F838E836A8188810E9487000E94D30098
:1003A000688779878A879B87DF91CF911F910F910B
:1003B00008951F920F920FB60F9211242F933F931F
:1003C0008F939F93AF93BF9380919E0290919F02D2
:1003D000A091A002B091A10230919D0223E0230FD1
:1003E0002D3720F40196A11DB11D05C026E8230F6D
:1003F0000296A11DB11D20939D0280939E029093B1
:100400009F02A093A002B093A102809199029091C3
:100410009A02A0919B02B0919C020196A11DB11D70
:100420008093990290939A02A0939B02B0939C02AE
:10043000BF91AF919F918F913F912F910F900FBEE0
:100440000F901F901895789484B5826084BD84B510
:10045000816084BD85B5826085BD85B5816085BDBF
:1004600080916E00816080936E0010928100809177
:1004700081008260809381008091810081608093FF
:100480008100809180008160809380008091B10024
:1004900084608093B1008091B00081608093B0004F
:1004A00080917A00846080937A0080917A008260E3
:1004B00080937A0080917A00816080937A008091A5
:1004C0007A00806880937A001092C10062E070E048
:1004D0008BE792E00E94DF00C8EED3E000E010E07E
:1004E0000E94D300609391027093920280939302D2
:1004F00090939402F12C80918902F816A8F49091BF
:10050000870280918802E92FF82FEF0DF11DEF0D82
:10051000F11D80819181DC01ED91FC910190F081D0
:10052000E02D0995F394E7CF80919102909192028A
:10053000A0919302B091940240918D0250918E024D
:1005400060918F0270919002841B950BA60BB70BE4
:100550004091950250919602609197027091980295
:10056000481759076A077B0708F06FC0E0918A02B5
:10057000F0918B0280918C028F5F9381891708F034
:10058000828180938C02248130E0B9016F5F7F4FBC
:10059000869FA001879F500D112480819181280F93
:1005A000391FF901E40FF51F20812C9FC0012D9FF9
:1005B000900D1124092E000CAA0BBB0B8093950201
:1005C00090939602A0939702B0939802F12C809199
:1005D0008902F81680F54F2D50E0CA01880F991F47
:1005E000E0918702F0918802E80FF91F80819181E4
:1005F000DC01ED91FC910280F381E02DA0918A0253
:10060000B0918B0214962C91149730E02F5F3F4FDE
:10061000E0908C02E29EB001E39E700D11242D91BA
:100620003C91260F371FD901A40FB51F6C9170E0C4
:100630000995F394CCCF0E94D30060938D02709300
:100640008E0280938F02909390028BE792E00E943B
:1006500047010115110509F443CF0E94000040CF66
:100660000F931F93CF93DF930CE211E020E041E062
:100670006DE08BE792E00E949D0104EF11E021E024
:1006800040E062E08FE692E00E949D0121E040E0C0
:1006900063E083E692E00E949D0121E040E064E097
:1006A00087E592E00E949D0121E040E065E08BE457
:1006B00092E00E949D0121E040E066E08FE392E03D
:1006C0000E949D0121E040E067E083E392E00E9408
:1006D0009D0121E040E068E087E292E00E949D01F8
:1006E00021E040E069E08BE192E00E949D0121E081
:1006F00040E06AE08FE092E00E949D0121E040E04E
:100700006BE083E092E00E949D0185E791E0909389
:10071000D8018093D70124E2E5E3F1E0AFEDB1E049
:1007200001900D922A95E1F727E532E03093DE0142
:100730002093DD012BE432E03093DC012093DB01D8
:100740002FE332E03093DA012093D9019093AC018A
:100750008093AB0184E2E5E3F1E0A3EBB1E001902B
:100760000D928A95E1F78BE192E09093B20180932C
:10077000B1018FE092E09093B0018093AF0183E0EC
:1007800092E09093AE018093AD018DE691E090935D
:1007900096018093950120E1E9E5F1E0ABE9B1E054
:1007A00001900D922A95E1F72FE632E030939801FF
:1007B0002093970123E632E030939A012093990128
:1007C0009093800180937F0180E1E9E5F1E0A5E865
:1007D000B1E001900D928A95E1F783E392E0909366
:1007E00082018093810187E292E09093840180935B
:1007F000830188E091E090937B0180937A0181E00E
:1008000080937C0189E080937D0184E080937E0168
:1008100020E031E0309388022093870280938902A0
:100820008AE791E090938B0280938A0210928C0267
:100830000E94D30060938D0270938E0280938F028A
:10084000909390020E94D300609391027093920261
:100850008093930290939402E0918A02F0918B022C
:10086000848190E0AC014F5F5F4F60918C02649F88
:100870009001659F300D112440815181840F951F97
:10088000FC01E20FF31F408128EE33E0429FC001DC
:10089000439F900D1124092E000CAA0BBB0B8093D3
:1008A000950290939602A0939702B0939802C0E0AD
:1008B000D0E0CE01880F991FE0918702F091880265
:1008C000E80FF91F80819181E0918A02F0918B02FB
:1008D000DC010D911C91248130E02F5F3F4F60912E
:1008E0008C02629FA001639F500D11240190F08142
:1008F000E02DEC0FFD1FE40FF51F608170E0D801C3
:100900001296ED91FC91139709952196C430D1056B
:1009100081F6DF91CF911F910F910895EE0FFF1F88
:0C0920000590F491E02D0994F894FFCFAD
:10092C00D701AB0195017F01030303030A00020207
:10093C000005010202010304020202020205000288
:10094C000202000002050201010203020502020577
:10095C000502020205000001000100020001000175
:10096C000001000100000001000200010001000074
:10097C000001000100000000000000010002000165
:10098C00000100000001000100000000007F01FBDD
:0A099C0000000000008C01210100A2
:00000001FF
