:100000000C945D000C9485000C9485000C94850084
:100010000C9485000C9485000C9485000C9485004C
:100020000C9485000C9485000C9485000C9485003C
:100030000C9485000C9485000C9485000C9485002C
:100040000C94E5020C9485000C9455030C942F033A
:100050000C9485000C9485000C9485000C9485000C
:100060000C9485000C9485000000000024002700FB
:100070002A0000000000250028002B0004040404CE
:100080000404040402020202020203030303030342
:10009000010204081020408001020408102001021F
:1000A00004081020000000080002010000030407FB
:1000B0000000000000000000870311241FBECFEFE6
:1000C000D8E0DEBFCDBF11E0A0E0B1E0ECEEF9E09A
:1000D00002C005900D92AC38B107D9F723E0ACE827
:1000E000B1E001C01D92A134B207E1F710E0CDE507
:1000F000D0E004C02197FE010E94E904CC35D1076D
:10010000C9F70E947F040C94F4040C94000090E062
:10011000FC01EC55FF4F3491FC01E057FF4F249157
:10012000FC01E458FF4FE491EE2309F43BC0332374
:1001300039F1333091F038F43130A9F0323001F533
:1001400084B58F7D12C0373091F03830A1F0343053
:10015000B9F4809180008F7D03C0809180008F77FB
:10016000809380000DC084B58F7784BD09C08091D5
:10017000B0008F7703C08091B0008F7D8093B00076
:10018000F0E0EE0FFF1FEE58FF4FA591B4918FB72F
:10019000F894EC91611103C020952E2301C02E2B01
:1001A0002C938FBF08952FB7F894609191017091AF
:1001B000920180919301909194012FBF0895CF9265
:1001C000DF92EF92FF920F931F93CF93DF936C0117
:1001D0007A018B01C0E0D0E0CE15DF0589F0D801AF
:1001E0006D918D01D601ED91FC910190F081E02D92
:1001F000C6010995892B11F47E0102C02196ECCF2E
:10020000C701DF91CF911F910F91FF90EF90DF9089
:10021000CF900895089580E090E00895FC01538DFB
:10022000448D252F30E0842F90E0821B930B5417D0
:1002300010F0CF96089501970895FC01918D828D5D
:10024000981761F0828DDF01A80FB11D5D968C912A
:10025000928D9F5F9F73928F90E008958FEF9FEF35
:100260000895FC01918D828D981731F0828DE80FF1
:10027000F11D858D90E008958FEF9FEF0895FC01AB
:10028000918D228D892F90E0805C9F4F821B910978
:100290008F739927089585E991E00E943F0121E03D
:1002A000892B09F420E0822F0895FC01848DDF0161
:1002B000A80FB11DA35ABF4F2C91848D90E00196D9
:1002C0008F739927848FA689B7892C93A089B189C8
:1002D0008C9180648C93938D848D981306C00288D2
:1002E000F389E02D80818F7D80830895EF92FF92C6
:1002F0000F931F93CF93DF93EC0181E0888F9B8D49
:100300008C8D981305C0E889F989808185FD24C00A
:10031000F62E0B8D10E00F5F1F4F0F731127E02E8D
:100320008C8DE8120CC00FB607FCFACFE889F9896A
:10033000808185FFF5CFCE010E945501F1CF8B8DD5
:10034000FE01E80FF11DE35AFF4FF0820B8FEA899F
:10035000FB898081806207C0EE89FF896083E8891C
:10036000F98980818064808381E090E0DF91CF9182
:100370001F910F91FF90EF900895CF93DF93EC01C1
:10038000888D8823C9F0EA89FB89808185FD05C0B5
:10039000A889B9898C9186FD0FC00FB607FCF5CFEF
:1003A000808185FFF2CFA889B9898C9185FFEDCF37
:1003B000CE010E945501E7CFDF91CF91089580E0F3
:1003C00090E0892B29F00E944B0181110C940000D0
:1003D0000895CF93DF93EC017F836E830E94D30057
:1003E000688779878A879B878E819F81009721F014
:1003F000019741F46A8101C069818881DF91CF91C1
:100400000C948700DF91CF9108950F931F93CF93A2
:10041000DF938C01EB01FB01EE0FFF1FEE0FFF1FBF
:10042000E00FF11F66817781F801828193810E943C
:10043000E9012296CC0FDD1FCC0FDD1FC00FD11FAD
:1004400068817981F80184819581DF91CF911F9135
:100450000F910C94E9010F931F93CF93DF938C01BD
:1004600086E0869FE001879FD00D1124C00FD11F29
:1004700068857985F801868197810E94E9016A85FE
:100480007B85F801848195810E94E9016C857D85D9
:10049000F80182819381DF91CF911F910F910C948C
:1004A000E9010F931F93CF93DF93FC0126813781DE
:1004B0002230310549F5EC010E94D30008851985E9
:1004C0002A853B85AB01BC01401B510B620B730BB2
:1004D0008B819C81A0E0B0E084179507A607B70741
:1004E00098F48D81882311F0698101C06A81888127
:1004F0000E9487009D8181E089278D830E94D3001F
:10050000688779878A879B87DF91CF911F910F91A9
:100510000895CF93DF93EC018A819B810E94510261
:100520008C819D81DF91CF910C945102CF93DF9309
:10053000EC018E819F810E9451028C819D810E94DD
:1005400051028A819B81DF91CF910C9451020F93CC
:100550001F93CF93DF93EC011D82688349832A8325
:100560001C830B8370E0FB01E057FF4F8491FB017C
:10057000E458FF4F2491222399F030E0220F331FDB
:10058000F901E859FF4FA591B491F901EE58FF4FD9
:10059000259134919FB7F894EC91E82BEC939FBF91
:1005A00081E090E09F838E836A8188810E9487002A
:1005B0000E94D300688779878A879B87DF91CF91D4
:1005C0001F910F9108950E94EF041F920F920FB692
:1005D0000F9211242F933F938F939F93AF93BF93C9
:1005E0008091910190919201A0919301B091940119
:1005F0003091900123E0230F2D3720F40196A11DA7
:10060000B11D05C026E8230F0296A11DB11D209340
:1006100090018093910190939201A0939301B093E4
:10062000940180918C0190918D01A0918E01B091E7
:100630008F010196A11DB11D80938C0190938D01B6
:10064000A0938E01B0938F01BF91AF919F918F9135
:100650003F912F910F900FBE0F901F9018951F92F2
:100660000F920FB60F9211242F933F934F935F93E6
:100670006F937F938F939F93AF93BF93EF93FF936A
:1006800085E991E00E945501FF91EF91BF91AF91F3
:100690009F918F917F916F915F914F913F912F919A
:1006A0000F900FBE0F901F9018951F920F920FB6CC
:1006B0000F9211242F938F939F93EF93FF93E091C9
:1006C000A501F091A6018081E091AB01F091AC0110
:1006D00082FD12C090818091AE018F5F8F73209157
:1006E000AF01821751F0E091AE01F0E0EB56FE4F02
:1006F000958F8093AE0101C08081FF91EF919F9112
:100700008F912F910F900FBE0F901F9018950F9300
:100710001F93CF93DF93E5E9F1E01382128288EE15
:1007200093E0A0E0B0E084839583A683B7838DE651
:1007300091E09183808385EC90E09587848784ECB9
:1007400090E09787868780EC90E0918B808B81EC9E
:1007500090E0938B828B82EC90E0958B848B86EC7F
:1007600090E0978B868B118E128E138E148E0CE276
:1007700011E020E041E06DE085E393E00E94A702F4
:1007800004EF11E021E040E062E089E293E00E94A2
:10079000A70221E040E063E08DE193E00E94A70220
:1007A00021E040E064E081E193E00E94A70221E0C3
:1007B00040E065E085E093E00E94A70221E040E090
:1007C00066E089EF92E00E94A70221E040E067E046
:1007D0008DEE92E00E94A70221E040E068E081EE09
:1007E00092E00E94A70221E040E069E085ED92E0FE
:1007F0000E94A70221E040E06AE089EC92E00E94BA
:10080000A70221E040E06BE08DEB92E00E94A7029E
:10081000C1E9D2E087E891E09983888324E2E5E3A7
:10082000F1E0A9E9B2E001900D922A95E1F721E10A
:1008300033E03F832E8325E033E03D832C8329EF93
:1008400032E03B832A83C5E6D2E09983888384E241
:10085000E5E3F1E0ADE6B2E001900D928A95E1F7B3
:1008600085ED92E09F838E8389EC92E09D838C835B
:100870008DEB92E09B838A83CFE4D2E08FE791E017
:100880009983888320E1E9E5F1E0A5E5B2E00190F4
:100890000D922A95E1F729E233E03B832A832DE18B
:1008A00033E03D832C83C9E3D2E09983888380E1E0
:1008B000E9E5F1E0AFE3B2E001900D928A95E1F74E
:1008C0008DEE92E09B838A8381EE92E09D838C8300
:1008D00088E091E09093380280933702E2E3F2E0FF
:1008E00080E091E09183808384E0828387E392E0DB
:1008F00094838383DF91CF911F910F910895789412
:1009000084B5826084BD84B5816084BD85B5826014
:1009100085BD85B5816085BD80916E0081608093C5
:100920006E0010928100809181008260809381002E
:10093000809181008160809381008091800081603E
:10094000809380008091B10084608093B100809199
:10095000B00081608093B00080917A0084608093C1
:100960007A0080917A00826080937A0080917A0088
:10097000816080937A0080917A00806880937A0009
:100980001092C10062E070E085E393E00E94E9010B
:10099000C0E080913402C817A8F49091320280918F
:1009A0003302E92FF82FEC0FF11DEC0FF11D8081C0
:1009B0009181DC01ED91FC910190F081E02D099590
:1009C000CF5FE7CF85E393E00E9451020E94DF01F1
:1009D000DFCFEE0FFF1F0590F491E02D099481E029
:0C09E00090E0F8940C94F404F894FFCF1D
:1009EC00910265024F023902030303030500020260
:1009FC0000050102020105040202020502050002C3
:100A0C0005020000020502010102050205020205B1
:100A1C0005020202050000010001000200010001B4
:100A2C0000010001000000010000000100010000B5
:100A3C0000000001000200010000000100020001A2
:100A4C00000100000001000100000000007601DF41
:100A5C00000E01BD013F011D0131010000000089A4
:0C0A6C000205020000000096022B0200B0
:00000001FF
